S011000070696E6368616E67652E7372656366
S11300000C9434000C9446000C9446000C94460066
S11300100C9446000C941D020C9446000C9446006B
S11300200C9446000C9446000C9446000C94730205
S11300300C9446000C9446000C9401030C94250384
S11300400C9446000C9446000C9446000C94460014
S11300500C9446000C9446000C9446000C94460004
S11300600C9446000C94460011241FBECFEFD8E038
S1130070DEBFCDBF21E0A0E0B1E001C01D92A231FE
S1130080B207E1F70E9431030C94FE030C940000C4
S11300908AB18B7F8AB98BB184608BB984E08093F9
S11300A06D0080936800089510928500109284007A
S11300B010928000E1E8F0E090819B6090832AEF49
S11300C0829FC00111249093890080938800EFE6F9
S11300D0F0E08081826080830895E1E8F0E080812F
S11300E08083089510920901109204011092030173
S11300F010920201109201011092000108951092D1
S113010008011092070110920601109205010E9445
S11301106D000E94720010920A0110920B01089562
S11301200E94720081E080930A01089510920901EF
S113013082E080930A0181E080930B0188E70E94AA
S11301405400089590910901903208F068C02091FC
S11301500A01213009F063C0882309F44CC09830A7
S113016070F421E030E0092E02C0220F331F0A94FC
S1130170E2F780910401282B209304013CC088EF0E
S1130180890F883088F4492F50E04850510921E004
S113019030E002C0220F331F4A95E2F78091030139
S11301A0282B2093030127C080EF890F883088F41F
S11301B0492F50E04051510921E030E002C0220FA4
S11301C0331F4A95E2F780910201282B2093020104
S11301D012C0983180F0492F50E04851510921E074
S11301E030E002C0220F331F4A95E2F780910101EB
S11301F0282B209301019F5F90930901903279F499
S1130200209102018091010190E0820F911D8F3FA6
S1130210910519F40E94960008950E947F000895A4
S113022080910B018130A1F480910A01823011F098
S113023081110EC0809100018F3F19F08F5F809370
S1130240000182E080930A0188E70E945400089527
S11302500E947F0008958091070190910801892BE5
S113026009F4C2C08091050190910601892B09F41B
S1130270BBC08091070190910801873D964008F426
S113028047C080910701909108018E3B9A4008F085
S11302903FC0609105017091060180E090E00E94EA
S11302A0980320E030E048E454E40E94F90318166F
S11302B054F480910501909106018C3D954018F409
S11302C00E94900091C0609105017091060180E048
S11302D090E00E94980320E030E048EC53E40E9450
S11302E0F90318160CF080C06091050170910601A5
S11302F080E090E00E94980320E030E048E454E479
S11303000E94930318160CF46FC00E9410016CC075
S1130310609107017091080180E090E00E949803C9
S113032020E030E044EB52E40E94F90318160CF08C
S113033059C0609107017091080180E090E00E942B
S1130340980320E030E04EE353E40E9493038823B3
S11303500CF048C0609105017091060180E090E0C6
S11303600E94980320E030E84BEB53E40E94F90329
S11303701816A4F4609105017091060180E090E0E4
S11303800E94980320E030E84DEE53E40E9493036A
S1130390882324F481E00E94A20026C06091050114
S11303A07091060180E090E00E94980320E030E024
S11303B044EB52E40E94F9031816B4F46091050169
S11303C07091060180E090E00E94980320E030E004
S11303D04EE353E40E949303882334F480E00E94A4
S11303E0A20002C00E947F0010920801109207012F
S11303F01092060110920501089520910A012230FD
S113040081F42091040130E0FC01318320832091A8
S11304100201228320910001238310920A0181E0CA
S1130420089580E00895CF93CFB7F8940E944800D0
S11304300E947F00CFBFCF9108951F920F920FB6F5
S11304400F9211242F933F934F935F936F937F9356
S11304508F939F93AF93BF93EF93FF9380910A0180
S1130460823081F14A991EC0809107019091080160
S1130470892B21F480E10E94540024C080918400DF
S1130480909185002091070130910801821B930B04
S1130490909306018093050180E10E9454000E941C
S11304A02B0110C0809184009091850090930801E5
S11304B0809307018091070190910801892B11F421
S11304C00E947F00FF91EF91BF91AF919F918F9117
S11304D07F916F915F914F913F912F910F900FBE3C
S11304E00F901F9018951F920F920FB60F92112420
S11304F02F933F934F935F936F937F938F939F9328
S1130500AF93BF93EF93FF930E946D0080910A0114
S1130510823019F410920B0102C00E947F00FF91F7
S1130520EF91BF91AF919F918F917F916F915F9167
S11305304F913F912F910F900FBE0F901F901895E0
S113054082E084BD85BD86E080936E008FEF87BD19
S11305508091110188BD0895809111018A3F19F499
S11305608093110103C0875E809311018091110172
S113057088BD089580911101811109C080910C01F9
S1130580815080930C018AEF8093110103C089513B
S1130590809311018091110188BD089580910C010F
S11305A0813011F485B90895823019F483E085B956
S11305B00895833019F487E085B90895843019F4D7
S11305C08FE085B908959BEF980F933060F490E025
S11305D0059721E030E0A90102C0440F551F8A9518
S11305E0E2F748B90895882359F090E0089721E08C
S11305F030E0A90102C0440F551F8A95E2F748B9BB
S113060008951F920F920FB60F9211242F933F93C8
S11306104F935F936F937F938F939F93AF93BF9306
S1130620EF93FF930E94CE02FF91EF91BF91AF91A0
S11306309F918F917F916F915F914F913F912F91F6
S11306400F900FBE0F901F9018951F920F920FB628
S11306500F92112415B818B80F900FBE0F901F9069
S1130660189584B18F6084B987B1876087B98AEFA0
S11306708093110110920C010E9413027894F89453
S11306808DE091E00E94FD0178948823C1F380916C
S113069010018823F9F080910F01863859F40E94E3
S11306A0BA022FEF81EE94E0215080409040E1F7B0
S11306B000C0000080910F01833809F70E94AC024A
S11306C02FEF81EE94E0215080409040E1F700C08C
S11306D00000D5CF80910F01803869F480910C011E
S11306E08A3019F480930C01CACF8F5F80930C0178
S11306F00E94A002C4CF863819F40E94BA02BFCF68
S11307008E3859F480910C01811103C010920C01B0
S1130710B6CF815080930C01B2CF833809F0AFCFAC
S11307200E94AC02ACCF0E94D50308F481E0089586
S1130730E89409C097FB3EF4909580957095619577
S11307407F4F8F4F9F4F9923A9F0F92F96E9BB272D
S11307509395F695879577956795B795F111F8CFA9
S1130760FAF4BB0F11F460FF1BC06F5F7F4F8F4F14
S11307709F4F16C0882311F096E911C0772321F00A
S11307809EE8872F762F05C0662371F096E8862FA2
S113079070E060E02AF09A95660F771F881FDAF7F9
S11307A0880F9695879597F90895990F0008550F26
S11307B0AA0BE0E8FEEF16161706E807F907C0F0E3
S11307C012161306E407F50798F0621B730B840BEB
S11307D0950B39F40A2661F0232B242B252B21F4C5
S11307E008950A2609F4A140A6958FEF811D811D65
S11307F008950E94D50308F48FEF0895F894FFCF6D
S9030000FC
